S01800006275696C642F6D6963617A2F6D61696E2E73726563E5
S11300000C9449000C949C050C94A6050C94B00522
S11300100C94BA050C94C4050C94CE050C943A07C0
S11300200C94D8050C9468000C9468000C94370B5D
S11300300C94920D0C9466050C947C050C941A0691
S11300400C9455050C94C60F0C9468000C9468002D
S11300500C9468000C9468000C9468000C9468007C
S11300600C9471050C9468000C9468000C9468005E
S11300700C9468000C9468000C9468000C9468005C
S11300800C9468000C9468000C94680000081C1818
S1130090141011241FBECFEFD0E1DEBFCDBF11E09D
S11300A0A0E0B1E0E2E5F4E300E00BBF02C007909A
S11300B00D92A432B107D9F712E0A4E2B1E001C075
S11300C01D92AC3DB107E1F70E940C160C94281A5E
S11300D00C9400008FB7F894992708958FBF089562
S11300E0FC0182819927582F442781819927482B25
S11300F0592BCA01892F992786958695837090700C
S11301008230910559F08330910559F0892B19F407
S113011020E030E008C02CE93FEF05C022E030E0E9
S113012002C028E030E0CA0184E0989F812D99271D
S113013011248230910559F08330910559F0892BAF
S113014019F480E090E008C08CE99FEF05C082E0DC
S113015090E002C088E090E0280F391F2A5F3F4FEB
S1130160CF01820F931F0895282F9FB7F894662319
S113017049F0E82FFF27EF59FD4F8081882311F0C4
S113018021E006C0E22FFF27EF59FD4F608320E0F6
S1130190892F99278FBF822F99270895E82F8FB72A
S11301A0F894282F332790E0FF27EF59FD4F8081E3
S11301B0861709F491E02FBF892F99270895882382
S11301C011F06E9A08956E980895882311F06F9A2D
S11301D008956F98089580E00E94DF00BA9ABB9852
S11301E0B99AB89A6C9A80E00E94E5006B986A9874
S11301F081E00E94DF00709A8DB18C7F8DB90895E3
S11302000F931F93CF93DF93182F8FB7F894C82FB2
S1130210DD270C2F61E080E00E94B400882321F0E8
S1130220CFBF85E090E024C080911D018823A1F414
S113023080914B01823081F409C082E080934B01AC
S113024010921D010E94EB00B89AC09810931A01F5
S113025080E00FBF99270CC080914B01882369F37C
S11302608FB7F8949927109261028FBF81E0F1CF84
S1130270DF91CF911F910F910895282F9FB7F89484
S1130280E82FFF27ED55FE4F80818F3F81F4E091E9
S1130290DA02E21771F40BC02093CB0204C0FF27EB
S11302A0ED55FE4F20832093DA0220E007C025E0BD
S11302B005C08091CB028F3F91F7EECF892F99270C
S11302C08FBF822F992708951F93182F81E00E94D2
S11302D0DF001FB9779BFECF8FB199271F91089537
S11302E08F929F92AF92BF92CF92DF92EF92FF9242
S11302F00F931F93CF93DF938FB7F8949927C090F0
S1130300D502D090D60280905A0290905B02C091A0
S1130310F301D091F4012091540130915501EAE0A8
S1130320AE2EB12CAC0EBD1E2A153B0508F45901A6
S11303308FBF7401EC0EFD1E86010C0F1D1F14C02F
S1130340C114D10419F0F801808101C080E00E9439
S113035064018114910411F0F701808321960894BB
S1130360E11CF11C0F5F1F4FC5010197C817D90786
S113037038F381E00E94E5009FB7F894C114D104DA
S113038031F0CC0EDD1EF60180818FB901C01FB89B
S1130390D093F401C093F301892F99278FBF80E094
S11303A090E0DF91CF911F910F91FF90EF90DF903C
S11303B0CF90BF90AF909F908F9008952FB7F894EF
S11303C0332750935501409354019093D602809360
S11303D0D50270935B0260935A021092F40110925A
S11303E0F3012FBF452B29F08FB10E94700199278B
S11303F0089589E00E943D0180E090E008958FB760
S1130400F8949927109263028FBF08957FB7F894E8
S113041062B7209157013091580140915901509190
S11304205A0106B601FE0FC081B792B7280F311DDD
S1130430411D511D2F5F3F4F4F4F5F4F290F311DFE
S1130440411D511D04C0260F311D411D511D872F13
S113045099278FBFCA01B9010895DF92EF92FF92E5
S11304600F931F93D82E7A018B010E94060229E074
S1130470D29EF0011124E35DFD4F6083718382837A
S11304809383E482F5820683178380858360808763
S11304908DE00E943D011F910F91FF90EF90DF903E
S11304A008950F931F93CF93DF938C01EB018091F9
S11304B0470281FF03C080E090E01DC0E09100018D
S11304C0F0910101EE0FFF1FEE5FFE4F408151815D
S11304D06627772782E00E942D02A9EFB1E0FE0192
S11304E084E301900D928150E1F71093BE010093D3
S11304F0BD0181E090E0DF91CF911F910F910895AC
S113050092E090937A0120910001309101012093AF
S11305107C01232F332720937B0180937D0110924C
S11305207F0110927E0148E853E160E070E083E0CF
S11305300E942D026EE671E081E090E00E9451027B
S1130540089510927A0180910001909101018093A5
S11305507C01892F992780937B0110927D01109251
S11305607F0110927E0148E853E160E070E081E091
S11305700E942D026EE671E081E090E00E9451023B
S11305800895DF92EF92FF920F931F938FB7F89421
S1130590282F3327D22E91B782B746B7981711F078
S11305A041FF02C02FBF6AC08091F2018823E1F1AC
S11305B00E940602E0905D02F0905E0200915F02EC
S11305C0109160022091690130916A0140916B01A0
S11305D050916C016E197F09800B910B62177307A0
S11305E08407950720F01092F20171E01EC02E0DD1
S11305F03F1D401F511F8091570190915801A091B8
S11306005901B0915A01281B390B4A0B5B0B273E49
S113061031054105510540F4822F223010F070E07D
S113062005C070E082E002C070E086EE682F615081
S113063000B601FCFDCF82B7681709F46F5F209103
S11306405701309158014091590150915A01DA01F2
S1130650C9010196A11DB11D860F911DA11DB11DDA
S113066082179307A407B50710F4622F609561BF42
S1130670DFBE772319F08CE00E943D011F910F919A
S1130680FF90EF90DF900895AFB7F894BB27E1E0B7
S1130690E093F20160935D0270935E0280935F02C7
S11306A0909360022093690130936A0140936B0137
S11306B050936C01AFBF0E94C102089580E88093FB
S11306C06D011092BC011092CE021092CA021092D7
S11306D0B8010895CF93DF93FC0115A6DC019E9623
S11306E0ED011B821A82198280E886A7DF91CF91DF
S11306F008952F923F924F925F926F927F928F92C2
S11307009F92AF92BF92CF92DF92EF92FF920F939C
S11307101F93CF93DF93CDB7DEB728970FB6F89426
S1130720DEBF0FBECDBF2090D8013090D9014090DC
S1130730DA015090DB016624772488245EE4A52E38
S113074043E8B42ECC24DD24EE24FF2400E010E0A2
S1130750222D332D442D552D662D772D882D90E097
S11307600E940A1829833A834B835C836D837E83BA
S11307708F839887822E932EA42EB52E24013501C3
S113078000E20E940819A22EB32EC42ED52EC30156
S1130790B20196958795779567956A0D7B1D8C1D9B
S11307A09D1D97FF05C09F776F5F7F4F8F4F9F4FB2
S11307B06093D8017093D9018093DA019093DB019F
S11307C028960FB6F894DEBF0FBECDBFDF91CF9150
S11307D01F910F91FF90EF90DF90CF90BF90AF905B
S11307E09F908F907F906F905F904F903F902F904D
S11307F008958FB7F8946091F7017091F8012CB5C2
S11308003DB506B602FE04C06F5F7F4F2CB53DB503
S113081099278FBF88279927CB01772766274427F5
S11308205527622B732B842B952B0895EF92FF92FF
S11308300F931F930E94F9037B018C012091E20125
S11308403091E3014091E4015091E5018091DD0193
S11308509091DE01A091DF01B091E001820F931F1E
S1130860A41FB51FE216F3060407150730F082171C
S11308709307A407B50758F005C082179307A40788
S1130880B507E0F5E816F9060A071B07B8F59C0159
S1130890AD012E193F09400B510B213060E836079A
S11308A060E0460760E0560768F180E090E8A0E069
S11308B0B0E0E80EF91E0A1F1B1FE092E201F0925D
S11308C0E3010093E4011093E50180E090E8AFEFC9
S11308D0BFEFE80EF91E0A1F1B1F2050304840408E
S11308E050402093DD013093DE014093DF015093AB
S11308F0E00120E030E840E050E014C020E030E0C7
S113090040E050E08093E2019093E301A093E4017E
S1130910B093E5011092DD011092DE011092DF0127
S11309201092E001A901B7012CB53DB5C9018E199A
S11309309F0903968417950720F0B9016D5F7F4FD7
S113094002C0640F751F6115710511F461E070E058
S1130950615070407BBD6ABD80E186BF87B780610E
S113096087BF1F910F91FF90EF9008950F931F93EE
S11309700FB7F89411276093E2017093E301809319
S1130980E4019093E5012093DD013093DE0140936F
S1130990DF015093E0010E9416040FBF1F910F91D5
S11309A00895CF92DF92EF92FF920F931F93CF930C
S11309B0DF938C01F62E6A01E22E8FB7F894C82FCC
S11309C0DD2760E080E00E94CE00882321F0CFBFC5
S11309D080E090E01EC0CFBF0F0D111D802F8068F6
S11309E00E946401F82E16950795802F807C0E9442
S11309F064010E2D0AC0EE2DFF27E01BF109EC0D5A
S1130A00FD1D80810E94640101500023A1F78F2DF8
S1130A109927DF91CF911F910F91FF90EF90DF9075
S1130A20CF90089597B79F7D97BF90E296BF882394
S1130A3019F08EB5806402C08EB58F7B8EBD87B7EA
S1130A40806287BF80E090E00895AF92BF92CF921A
S1130A50DF92EF92FF920F931F93CF93DF93CDB763
S1130A60DEB728970FB6F894DEBF0FBECDBF20E0E7
S1130A7070E0E0910001F091010132E14DE65CE4A7
S1130A806FE4809101019E2F28960FB6F894DEBF83
S1130A900FBECDBFDF91CF911F910F91FF90EF90CB
S1130AA0DF90CF90BF90AF9008951F920F920FB632
S1130AB00F9211248F9383B783BF00B600FCFDCF40
S1130AC08F910F900FBE0F901F90189578941F92DE
S1130AD00F920FB60F9211240F900FBE0F901F901C
S1130AE0189578941F920F920FB60F9211240F90BD
S1130AF00FBE0F901F90189578941F920F920FB607
S1130B000F9211242F933F938F939F932FB7F894B1
S1130B1033278091F7019091F80101969093F801A1
S1130B208093F7012FBF9F918F913F912F910F9049
S1130B300FBE0F901F9018951F920F920FB60F9231
S1130B4011240F900FBE0F901F9018951F920F92B3
S1130B500FB60F9211240F900FBE0F901F9018958F
S1130B601F920F920FB60F9211240F900FBE0F9089
S1130B701F9018951F920F920FB60F9211240F9089
S1130B800FBE0F901F9018951F920F920FB60F92E1
S1130B9011240F900FBE0F901F9018951F920F9263
S1130BA00FB60F9211240F900FBE0F901F9018953F
S1130BB01F920F920FB60F9211240F900FBE0F9039
S1130BC01F901895CF93DF93CDB7DEB72C970FB650
S1130BD0F894DEBF0FBECDBF8FB7F894282FAE01B7
S1130BE04F5F5F4FDA01E7E6F2E088E001900D9293
S1130BF08150E1F78091D3019091D4018987892FA5
S1130C0099278A878091E6019091E7018B87892F44
S1130C1099278C872FBF2CE060E080E691E00E944A
S1130C20D1042C960FB6F894DEBF0FBECDBFDF9172
S1130C30CF9108951F920F920FB60F9211242F9304
S1130C403F934F935F936F937F938F939F93AF9350
S1130C50BF93EF93FF9383B783BF00B600FCFDCF30
S1130C6081B799270196AA27BB2720915701309174
S1130C7058014091590150915A01280F391F4A1FB8
S1130C805B1F2093570130935801409359015093AF
S1130C905A0178940E94C102FF91EF91BF91AF91E4
S1130CA09F918F917F916F915F914F913F912F9180
S1130CB00F900FBE0F901F9018950F931F93182F2E
S1130CC00FB7F89461E080E00E94B400882371F5C6
S1130CD010931A0180911D018823A9F580914B017D
S1130CE0823089F588E00CC00E94EB0080914B01B2
S1130CF0882349F481E080934B011092B9018AE082
S1130D000E943D012AC08091E1018F3F31F5E091BD
S1130D101C01EE2311F11CC010921B0104C0FF271B
S1130D20EF51FE4F108210921C0117C081E090E039
S1130D3002C0880F991F1A95E2F720914A01282BC7
S1130D4020934A010AC080914B018823E1F6CCCF5D
S1130D5080911B018F3F19F7DFCF802F99278FBF19
S1130D6080E090E01F910F9108951F9383E00E940B
S1130D7000019927182F882319F083E00E945D064B
S1130D80812F99271F9108951F93CF93DF93182FD5
S1130D908FB7F894C82FDD2760E080E00E94CE0072
S1130DA0882321F0CFBF80E090E005C0CFBF812F22
S1130DB00E9464019927DF91CF911F910895EF92CA
S1130DC0FF920F931F93CF93DF93182F7B01042F70
S1130DD08FB7F894C82FDD2760E080E00E94CE0032
S1130DE0882321F0CFBF80E090E014C0CFBF10640F
S1130DF0812F99279093EB018093EA010E9464016B
S1130E00182F402F5527B70180E090E00E94DE01A3
S1130E10812F9927DF91CF911F910F91FF90EF9030
S1130E200895C098609152017091530141E08FE39D
S1130E300E94DF06089582E090E09093B3018093CE
S1130E40B20181E08093BC0120E030E080911A017E
S1130E50843011F421E030E0232B29F484E00E9453
S1130E600001882319F40E941107089584E00E9468
S1130E705D0608951F920F920FB60F9211242F93BF
S1130E803F934F935F936F937F938F939F93AF930E
S1130E90BF93EF93FF938091B2019091B3010197B7
S1130EA049F482E090E09093B3018093B2010E94F0
S1130EB01B0705C08091B8018F5F8093B801FF9133
S1130EC0EF91BF91AF919F918F917F916F915F91BE
S1130ED04F913F912F910F900FBE0F901F90189537
S1130EE01F9380914A01882309F04BC010911A0185
S1130EF01F3F09F046C060E00E94CE00882309F439
S1130F0040C081E0809370028091A2018823E1F1C6
S1130F101092700285E090E045C0923069F5C09A65
S1130F2080911B0120E030E08F3F11F421E030E09C
S1130F30232BE9F410931D018F3F19F42FEF30E0B8
S1130F400DC0282F3327F901EF51FE4F8081809384
S1130F501B018F3F11F410931C0110832093B901DE
S1130F6081E080934B018AE00E943D0105C010930B
S1130F701D0110924B0111C080914B01882369F02F
S1130F800FC081E090E00EC080911D0190914B0153
S1130F90882319F2923021F0EFCF80E00E94DF0025
S1130FA080E090E01F9108951F93CF93DF939FB744
S1130FB0F894C92FDD271C2F90911A01981721F05E
S1130FC0CFBF81E090E03AC08FEF80931A01309157
S1130FD04A013323F1F48FB7F894992710926102F0
S1130FE08FBF0E947007CFBF11C020931A0181E008
S1130FF090E002C0880F991F4A95E2F78095382344
S113100030934A0188E00E943D011FBF80E090E0D8
S113101015C080E065E0E32FFF270E948B19292F7C
S1131020492F5527CF01042E02C0959587950A9420
S1131030E2F780FDDACF822F8F5FEFCFDF91CF9180
S11310401F9108951F93CF93DF938FB7F894C82F00
S1131050DD271C2F8091B2019091B301892B29F4D3
S113106084E00E94D407CFBF1EC01092BC018091BF
S1131070B801882311F0B79904C00E9908C08823D9
S113108019F081508093B8010E941B070BC081E0C6
S113109090E09093B3018093B2011092B80184E080
S11310A00E94D4071FBFDF91CF911F9108950E9422
S11310B05E03C09AC09888E00E94C40688E00E943B
S11310C0C406C09A84E00E94D4070E9422080895AE
S11310D0FF920F931F93CF93DF93F82E8B018FB75B
S11310E0F894C82FDD2760E080E00E94CE008823BA
S11310F021F0CFBF80E090E00CC0CFBF8F2D0E94C5
S11311006401812F99270E946401802F0E94640149
S11311109927DF91CF911F910F91FF9008951F930D
S11311201FB7F8948091B701882319F460E070E048
S113113009C060E08091D402882309F461E081E071
S1131140682777278091D501882319F480E090E0FF
S11311500AC090E080916602882309F491E081E05E
S11311609827892F9927762F6627770F770F770F80
S113117024E0880F991F2A95E1F7826E9262682B0A
S1131180792B81E10E946808812F99278FBF1F91D5
S113119008958FB7F894992760916F028FBF85E007
S11311A0689FB0011124625D7E4F706488E10E94E3
S11311B068080895EF92FF921F93CF93DF93E09016
S11311C0D601F090D701F70182A59927182F88231B
S11311D009F41FE1C0988091B601811749F0612F8D
S11311E077276F717070606E706885E10E9468087F
S11311F01093B601F70110818FB7F894C82FDD273B
S113120060E080E00E94CE00882311F0CFBF12C0BE
S1131210CFBF8EE390E09093EB018093EA018EE3DD
S11312200E9464011150412F552760E070E0C7010E
S11312300E94DE01DF91CF911F91FF90EF900895FE
S11312400F931F93CF93DF93EC010FB7F8941127FB
S11312500E947000FC018FE380830FBF1092D102C3
S11312601092D00261E082E00E94B400882319F059
S113127085E090E072C0809171028F5F809371026B
S113128081508B838FB7F894082F112762E081E097
S11312900E94CE00882329F40FBF0E94FF0181E041
S11312A05BC08FB7F894992724E0209362028FBF24
S11312B0D093F101C093F0010FBFFE0131968181FB
S11312C029819927982F88273327822B932B807283
S11312D09C7C8983892F992781832981982F88274A
S11312E033272164822B932B8983892F9927818328
S11312F01CA618A619A619AA18AA1FA680E88EA7C4
S113130061E0609365024091F0015091F1018FB763
S1131310F894282F332780914C0190914D01883007
S1131320910511F0019711F02FBF15C082E090E0F4
S113133090934D0180934C016093DB025093D7014D
S11313404093D601109256012FBF0E94B506882300
S113135011F40E94DA0880E09927DF91CF911F9160
S11313600F910895CF93DF93DA01422F2D3118F0B6
S113137082E090E05EC0ED018B876E83872F992712
S11313808F832FB7F89433278091D3019091D401A0
S11313902FBFFD018483892F992785832FB7F89464
S11313A0332780911E0190911F012FBF8887892FB9
S11313B0992789873196818129819927982F8827B0
S11313C0332720643868822B932B8983892F9927AC
S11313D08183435F4C934D5080912101882359F0C0
S11313E010922101642FCD010E9420099927282FF2
S11313F08823A9F417C0842F99279093EF01809331
S1131400EE01B0935101A09350018EE00E943D0182
S113141080912101882349F489E090E00AC08FEF8C
S113142080932101822F992704C01092DC0180E06F
S113143090E0DF91CF91089510921901E091F501A8
S1131440F091F601309721F08091CF0280FF08C01F
S113145081E080931901089581E00E943D0108957F
S113146020812D50332767817727762F6627868141
S11314709927682B792BAF0183850E94B2098823B1
S113148059F70895CF93DF9380911901882391F43C
S1131490C091F501D091F601C617D70759F41092FF
S11314A0F6011092F5010E941C0AC95FD14011F4A3
S11314B01092D202DF91CF910895AF92BF92CF9252
S11314C0DF92EF92FF920F931F93CF93DF935B0111
S11314D06C01C0E0D0E0EDE2F2E0608561FF9CC009
S11314E02081318142815381E480F5800681178116
S11314F0D601C501821B930BA40BB50B8E159F055A
S1131500A007B10708F488C060FF03C06D7F60873F
S113151008C02E0D3F1D401F511F2083318342837D
S11315205383C230A9F0C33020F4C13009F07AC02B
S113153007C0C33009F44FC0C43009F073C056C0AB
S113154080912401882309F06DC00E94A1026AC021
S11315502091BD013091BE018091D202882309F00F
S113156061C049EF51E02093FF01632F7727609317
S113157000028AE0809304028091F5019091F601C3
S1131580892B09F04FC05093F6014093F50183E194
S11315908093F901809119018823C9F0762F662779
S11315A0822F9927682B792B1092190126E08AE063
S11315B00E94B2099927282F882349F081E080935B
S11315C019011092F6011092F501222359F581E0D8
S11315D08093D20227C080912601882319F5E091D7
S11315E04501FF27E65DFE4F808113C0E091450170
S11315F0E330C0F4AE2FBB27FD01E95DFE4F8081CF
S1131600882381F4A65DBE4F8C91882359F01092F3
S113161026010E94800206C021963996C530D10564
S113162009F05BCF8DE00E943D01DF91CF911F91C6
S11316300F91FF90EF90DF90CF90BF90AF900895FF
S11316401F93182F81E090E090934D0180934C01FB
S11316501092A2010E9470078FB7F89499271093F3
S113166046018FBF84E00E943D011F910895789444
S11316701F920F920FB60F9211242F923F924F9206
S11316805F926F927F928F929F92AF92BF92CF920E
S1131690DF92EF92FF920F931F932F933F934F93F9
S11316A05F936F937F938F939F93AF93BF93CF93E6
S11316B0DF93EF93FF93C6B5D7B58FB7F894282E71
S11316C00E94F9039B012C1B3D0B442755272B013A
S11316D03C01421A530A640A750A80914C019091A4
S11316E04D018530910521F0069709F0E0C0BFC097
S11316F086E090E090934D0180934C0131E0332ECD
S11317003092BB0110924E0180E00E941205E091DC
S1131710D601F091D70141AABB27A72D962D852D7F
S113172080ABC301AA27BB2787A7872D9927AA27A0
S1131730BB2786A7E091D601F091D70185A5882320
S113174009F484C06081655077274F01860E971E87
S1131750F4012081E1808281A3809927AA27BB27F5
S1131760BA2FA92F982F8827332744275527522F7C
S1131770442733272227FF24002711278701FF242A
S1131780EE242E293F29402B512BBB24CC24DD24CD
S11317902A293B294C295D29822B932BA42BB52B79
S11317A084199509A609B7098383292F3A2F4B2F4A
S11317B0552722839D014427552721838B2F992761
S11317C0AA27BB278083C09824E0A40180E090E08E
S11317D00E94D104C09AF4012081E1808281A38017
S11317E09927AA27BB27BA2FA92F982F88273327F1
S11317F044275527522F442733272227FF24002725
S113180011278701FF24EE242E293F29402B512B39
S1131810BB24CC24DD242A293B294C295D29822B95
S1131820932BA42BB52B840D951DA61DB71D838367
S1131830292F3A2F4B2F552722839D0144275527C3
S113184021838B2F9927AA27BB278083E091D60178
S1131850F091D701818185FF02C03092A20183E01B
S11318600E94D40787B78F7E87BF84997AC010926D
S1131870BB0181E00E941205E091D601F091D701ED
S1131880818185FF0FC087E090E090934D018093A4
S11318904C010E94F90320E031E040E050E00E9456
S11318A0B60403C080E00E94200B849B5AC0809140
S11318B04E01882391F58091BB01882371F511E0D5
S11318C01093BB010E94120580B32091CA022830F4
S11318D098F4E091CE02E20FFF27E770F070EE0F6C
S11318E0FF1FEE0FFF1FEA58FD4F408251826282B4
S11318F073822F5F2093CA0210934E01D093ED019F
S1131900C093EC0184992DC0992704E0969587959E
S11319100A95E1F7182F117001C010E08091BB0106
S11319208130F9F41092BB010E94120510924E010D
S11319301123B9F48091EC019091ED01C81BD90BEE
S11319402A9778F48091CA02882319F081508093F1
S1131950CA028091D6019091D701009711F00E949C
S11319606A032FBEFF91EF91DF91CF91BF91AF91A9
S11319709F918F917F916F915F914F913F912F91A3
S11319801F910F91FF90EF90DF90CF90BF90AF9099
S11319909F908F907F906F905F904F903F902F908B
S11319A00F900FBE0F901F90189561E081E00E9488
S11319B0B4008823E9F48FB7F894282F3327809153
S11319C0470190914801892B11F02FBF20C081E07D
S11319D090E090934801809347012FBFDD9A0E94C5
S11319E0F90324E130E040E050E00E94B6040FC067
S11319F062E081E00E94CE00882319F089E090E043
S1131A00089561E081E00E94CE00882319F080E00F
S1131A1090E0089585E090E00895CF92DF92EF92F0
S1131A20FF920F931F93CFB6F894DD240E9479039D
S1131A30DC01CB0166E470E00E9497194BE0E42ED0
S1131A40F12CE80EF91EF092D802E092D7020E941F
S1131A50F90300271127A80197010E94B604CFBEFD
S1131A601F910F91FF90EF90DF90CF9008951F93F7
S1131A70CF93DF938FB7F894C82FDD271C2F809165
S1131A804C0190914D010897C9F489E00E94C40665
S1131A9083E00E94D407C09A81E090E090934D01C6
S1131AA080934C018FB7F894992723E02093460143
S1131AB08FBF84E00E943D01CFBF30C0C0988091A9
S1131AC0DB02882311F085E001C084E00E94C40693
S1131AD083FD09C080E00E94C40683FF04C085E042
S1131AE090E020E003C083E090E021E090934D017A
S1131AF080934C01C09A1FBF222341F010925601DB
S1131B0083E00E94D4070E940D0D08C00E94F903CF
S1131B1020E431E040E050E00E94B604DF91CF9130
S1131B201F91089578941F920F920FB60F9211246B
S1131B301F932F933F934F935F936F937F938F9351
S1131B409F93AF93BF93EF93FF9387B78F7E87BF26
S1131B5078941FB7F8948091DD019091DE01A091F3
S1131B60DF01B091E0010097A105B10509F051C072
S1131B7080914C0190914D018530910561F1863041
S1131B80910530F48330910549F0049781F51AC02A
S1131B9087309105F1F0089751F514C0869B0FC06A
S1131BA084E090E090934D0180934C010E94F903EE
S1131BB027E030E040E050E00E94B60418C00E94E4
S1131BC00D0D15C00E94B506882389F40E94370DB7
S1131BD00EC080E00AC089E00E94C40681E00E9431
S1131BE0120583E00E94D40787E00E94200B8091B5
S1131BF0470190914801019771F482E090E090933D
S1131C00480180934701DE98DE9A80E00E945D06D9
S1131C1002C00E941604812F99278FBFFF91EF9174
S1131C20BF91AF919F918F917F916F915F914F91F0
S1131C303F912F911F910F900FBE0F901F901895F9
S1131C40EF92FF920F931F93CF93DF938B018091B9
S1131C50EA019091EB0186FF40C18F7B8F3309F03D
S1131C608EC1C0915201D091530158815093B40157
S1131C708091B2019091B3018530910509F443C07C
S1131C808630910509F48AC0029709F01FC185E0E6
S1131C9090E09093B3018093B20140916D01852F40
S1131CA099270196242F3327281739074CF1B79920
S1131CB006C00E9904C0451B415040936D014091EC
S1131CC0B4014A32E8F44423A1F0BE016F5F7F4FB0
S1131CD0483018F047E050E007C086E090E0909369
S1131CE0B3018093B201552780E090E00E94DE01A9
S1131CF046C11092BC01C09A84E00E94D407E3C09C
S1131D000E9457083CC186E090E09093B301809311
S1131D10B2018091D501882309F439C0809166020B
S1131D208823A9F5898185FF32C08F814E812FB721
S1131D30F89433276091E6017091E7012FBF99274A
S1131D40982F88275527842B952B8617970759F0AA
S1131D508F812E819927982F88273327822B932BC5
S1131D608F5F9F4FA1F489818770813081F4C09A7D
S1131D70C0988AE00E94C406C09AC0984091B401F9
S1131D8047502896BE018FE30E94DF06F8C04091B9
S1131D90B401475055272896BE01A6CFC09A80911A
S1131DA0B801882339F484E00E94D4078091B801F3
S1131DB0882311F0B7990AC00E9B08C09091CA02FB
S1131DC0992321F08091B4018B3038F48091520131
S1131DD0909153010E946A033DC0913001F5E09156
S1131DE0CE02FF27EE0FFF1FEE0FFF1FEA58FD4F35
S1131DF02081318142815381E0915201F09153015C
S1131E0021ABBB27A52F942F832F80ABCA01AA2710
S1131E10BB2787A7252F33274427552726A780913B
S1131E20CE029927019668E070E00E94AB19809376
S1131E30CE028091CA0281508093CA02882351F055
S1131E4080915201909153010E946A031092CE0234
S1131E501092CA028091B401FE01E80FF11D808145
S1131E6087FF31C0012B79F169816770E0915201DC
S1131E70F0915301623019F5A091D601B091D701C8
S1131E80109709F180914C0190914D010797D9F475
S1131E90ED019B8183819817B1F487B78F7E87BF4B
S1131EA0908181E08CA7E90FF11D8291319688A77A
S1131EB080818F7789A780E00E94200B04C0613065
S1131EC011F48BE02AC00E94220859C01092BC0170
S1131ED0C09A84E00E94D40752C08E3309F04FC0E8
S1131EE0C09A80914C0190914D010897C9F4C09813
S1131EF089E00E94C406C09A83E00E94D40781E06E
S1131F0090E090934D0180934C018FB7F8949927FA
S1131F1023E0209346018FBF84E00E943D012FC03F
S1131F208091DB02882349F484E090E090934D0192
S1131F3080934C010E94370D22C083E00E94D40795
S1131F4083E090E090934D0180934C010E947903CB
S1131F50DC01CB0166E371E00E9497195BE0E52E9A
S1131F60F12CE80EF91EF0926801E09267010E94DC
S1131F70F90300271127A80197010E94B604DF91F5
S1131F80CF911F910F91FF90EF9008951F920F92A0
S1131F900FB60F9211242F933F934F935F936F9338
S1131FA07F938F939F93AF93BF93EF93FF932FB13F
S1131FB0E0915A02F0915B02309739F08091F3017D
S1131FC09091F401E80FF91F20838091F30190911F
S1131FD0F40101969093F4018093F30180E00E9450
S1131FE0E50040915401509155018091F301909185
S1131FF0F4018417950718F40E9470011CC06091C5
S11320005A0270915B028091D5029091D60210928F
S11320105B0210925A021092D6021092D5021092CC
S11320205501109254011092F4011092F3012FB152
S113203020E00E94200EFF91EF91BF91AF919F91FC
S11320408F917F916F915F914F913F912F910F905D
S11320500FBE0F901F901895AF92BF92CF92DF9250
S1132060EF92FF920F931F93CF93DF93CDB7DEB719
S1132070A8970FB6F894DEBF0FBECDBF873009F422
S113208039C1883098F4833009F4BAC0843038F404
S1132090813009F450C0823008F067C022C0853016
S11320A009F406C1863008F01FC1B1C08B3009F4B1
S11320B04DC28C3038F4893009F411C28A3008F0EA
S11320C031C250C18D3009F4E6C48D3008F4AEC479
S11320D08E3009F073C533C52FBF70C5C601B50175
S11320E0D7C48091CF02882309F468C540E051E049
S11320F09091CF02852F8923C1F0E42FFF27EE0FA3
S1132100FF1FEB50FE4F2081318111821082852FF9
S1132110809598239093CF02442339F4295F31406A
S113212009F049C51092D20246C54F5F483008F005
S113213045C5550FDDCF10911901E12FFF27EE0F93
S1132140FF1FEB50FE4FE080F180118210820E944D
S11321501C0A112309F032C559EFE51651E0F506C2
S113216009F02CC51092D20229C50FB7F894112793
S113217081E00E94120541E0E42EF12CF0924D0121
S1132180E0924C0110924E011092A2011092B601FD
S11321900FBF0FB7F89411270E945E03F092B301AA
S11321A0E092B2011092BC0189B78F7B89BF80E4B1
S11321B088BF8AB780628ABF8AB78F7E8ABF89B791
S11321C0806489BF0FBF8FB7F894082F11278091BF
S11321D0470190914801049719F483E00E94C406D2
S11321E00FBF0FB7F8941127C09A80E00E94D4075C
S11321F00FBF8FB7F894992722E02093620205C09D
S11322008FB7F8949927109262028FBFD7C48FB703
S1132210F8949927F09046018FBF63E081E00E9413
S1132220CE00882359F10FB7F894112710924D016D
S113223010924C0187B78F7E87BF87B78F7D87BF8A
S113224083E00E94D407C09A0FBF0FB7F8941127F8
S11322501092B3011092B2010E945E03C09A89B732
S11322608F7B89BF0FBF1092480110924701DE98FF
S1132270DD98DE9A83E00E943D0107C08FB7F89491
S1132280992722E0209362028FBF0091F001109100
S1132290F1010E94FF018091D0029091D102892B1B
S11322A009F08CC48FEF809321014F2DB80165C4D0
S11322B08FB7F894282F3327122F8091D9028823BF
S11322C009F00ACF81E08093D9028091470190916F
S11322D04801049721F481E00E945D0603C086E072
S11322E00E943D011FBF6AC48FB7F89499271092CA
S11322F0D9028BCF8FB7F894282F332780914901C7
S1132300882309F0E9CE2FBF80B3992736E096954C
S113231087953A95E1F7182F11709091E801809113
S1132320E9018917D9F01917C9F484E090E0909372
S11323304801809347018FB7F894992721E02093AF
S113234049018FBF60E070E08DE10E9468080E943F
S1132350E205C09AC09882E00E943D011093E90111
S113236087E06DC08FB7F894992710911A018FBF39
S1132370123009F467C0133030F4112359F01130CE
S113238009F01CC448C0133009F476C0143009F0B5
S113239015C4A2C0C0988FB7F894082F1127809154
S11323A04701909148010297A1F583E090E0909352
S11323B048018093470168E170E08DE10E9468085C
S11323C081E08093E8011092490180B3992726E0C7
S11323D0969587952A95E1F7817090708093E9012D
S11323E087E00E943D0181E00E94C4066FE772E02D
S11323F08CE10E9468080E94C9080E948F0866E563
S11324007AE287E10E9468086FEF70E885E10E9434
S113241068080FBFD3C3C09886E00E94C4060E9418
S1132420C9080E948F080E94E205C09AC09883E000
S11324300E94C406C09A81E00E94D40786E00E94EC
S11324403D01BCC3C0988FB7F894082F112760E0F2
S113245080E00E94CE00882311F00FBF0AC00FBF96
S113246083E50E94640180E00E94640180E00E9490
S11324706401C09A82E02DC08FB7F8949927209107
S11324804C018FBF243039F0283041F0223001F55F
S11324900E94DA0893C30E94370D90C3C09889E064
S11324A00E94C406C09A83E00E94D4078FB7F894B0
S11324B0992721E030E030934D0120934C018FBFE8
S11324C08FB7F8949927109346018FBF84E0B7CF54
S11324D083E00E94D40772C30E9411076FC30FB731
S11324E0F8941127409154015091550160915A027A
S11324F070915B028091D5029091D60210925B029A
S113250010925A021092D6021092D50210925501DE
S1132510109254011092F4011092F30120E00E94F1
S1132520200E77CF2FB7F89433278091B901809389
S11325301D0182E080934B012FBF80911D018823F0
S113254009F03CC3B89AC09888E079CFA0915201B1
S1132550B0915301DC909D012D0D311DF901808155
S1132560881F8827881FFD0183A7F90180818F7741
S1132570FD0181A721503040F9018081FD0180A730
S1132580A0915201B0915301FD0132818FB7F894AB
S113259099272091B7018FBF222309F490C0832F7C
S11325A09927969587959695879583709070823034
S11325B0910541F5878146812FB7F89433276091BF
S11325C0E6017091E7012FBF9927982F8827552797
S11325D0842B952B8617970719F481E090E06CC043
S11325E0FD018781268140E050E09927982F8827B4
S11325F03327822B932B8F5F9F4F11F441E050E0E0
S1132600CA015AC0039709F008C29E012F5F3F4FC9
S113261047E652E088E0FA010190AF01F901019226
S11326209F018150C1F79E012F5D3F4FAE014F5F67
S11326305F4F88E0FA010190AF01F90101929F0117
S11326408150C1F79E01275F3F4FAE014F5D5F4F41
S113265088E0FA010190AF01F90101929F018150D4
S1132660C1F79E012F5E3F4FAE01475F5F4F88E089
S1132670FA010190AF01F90101929F018150C1F764
S11326809E01275E3F4FAE014F5E5F4F88E0FA0127
S11326900190AF01F90101929F018150C1F748E017
S11326A050E0BE01675E7F4FCD0106960E94141A6A
S11326B0892B09F0B2C103C0882309F4AEC1FCE040
S11326C0FD1508F0AAC1E0905201F0905301F70102
S11326D02281822F992736E0969587953A95E1F7DE
S11326E0039719F468E070E002C062E070E0822FA2
S11326F099279695879596958795837090700397FB
S113270019F488E090E002C082E090E026E030E036
S1132710E20EF31E40E050E020E030E0F701E80F65
S1132720F91F8AEF9FEFE80EF91E05C08191480F4B
S1132730511D2F5F3F4F26173707C4F3F7016381FD
S11327408FEF8093D3028FB7F894782F20E030E096
S1132750EBE5F1E0808191818417950731F4828162
S1132760861709F428C12093D3022F5F3F4F339675
S11327702430310579F77FBF9091D3023FB7F894A5
S11327809F3F21F080914F01891799F420914F01C7
S1132790822F9927FC01EE0FFF1FE80FF91FE55A5E
S11327A0FE4F5183408362832F5F237020934F0138
S11327B00CC0892F9927FC01EE0FFF1FE80FF91FAA
S11327C0E55AFE4F518340836283832F99278FBF3D
S11327D00FB7F8941127C7010E947000FC01908183
S11327E00FBFF70183A5882309F413C19F3309F0B0
S11327F010C1878146812FB7F894332760911E0159
S113280070911F012FBF9927982F88275527842B54
S1132810952B8617970761F0878126819927982F32
S113282088273327822B932B8F5F9F4F09F0F1C0AA
S1132830F70183858A3009F0ECC0F3E1DF1609F073
S1132840E8C0A701445F5F4FF70184858823E9F559
S113285080910001909101010197B9F50091250142
S1132860A02FBB2710E0B701635F7F4F6D01CC0C35
S1132870DD1C2FEB31E0C20ED31E11C0FA018181A1
S1132880FB0121819927982F88273327822B932BAB
S1132890F601208131812817390721F01F5F1017B5
S11328A069F774C1FA018181428121E020937A01A0
S11328B0209100013091010120937C01232F3327C3
S11328C020937B0110927D0167C0FA0180818130E1
S11328D089F48091000190910101019759F0809150
S11328E03E0281FF07C08D7F80933E0281E080938A
S11328F0240188C0FA018081823009F05EC0809191
S1132900000190910101019709F057C070912501D0
S113291060E019C08A010F5F1F4FFA018181F8013D
S11329202181E62FFF27EE0FFF1FE154FE4F992769
S1132930982F88273327822B932B208131812817C6
S1132940390721F06F5F671729F763C0FA018381A4
S1132950A82FBB2783E0AA0FBB1F8A95E1F7A20F1C
S1132960B31FAD5DBE4F8C91882311F481E08C932D
S1132970FA0163818181F801418123E020937A0186
S1132980209100013091010120937C01232F3327F2
S113299020937B0160937D0110927F0110927E0150
S11329A09927982F882755276EE671E0842B952B5D
S11329B00E9451022EC07FBF2CC0FA018081833057
S11329C041F58091000190910101019711F120914D
S11329D0500221FF1EC0838130914501A32FBB27E4
S11329E0FD01E65DFE4F9081981799F42D7F2093A9
S11329F0500281E080932601A95DBE4F8C933F5F16
S1132A003093450148E853E160E070E084E00E94BF
S1132A102D02F0925301E09252018FB7F894992756
S1132A201092BC018FBF0E942208C8C08091B501DA
S1132A30882361F5209172023091730240917402EF
S1132A4050917502EFB7F894FF2760915D02709181
S1132A505E0280915F0290916002E0906901F090C3
S1132A606A0100916B0110916C016E0D7F1D801F36
S1132A70911FEFBF2093720230937302409374024C
S1132A80509375021092B5010E9444030E940602FD
S1132A900E945D0A93C00E9406025B016C018FB71D
S1132AA0F89499271092F2018FBF7FEFE72E7FEF02
S1132AB0F72E7FEF072F7FE7172F60E0EDE2F2E0BC
S1132AC0808581FF1CC080819181A281B381A60190
S1132AD09501281B390B4A0B5B0BDA01C9012481D0
S1132AE0358146815781281B390B4A0B5B0B2E1508
S1132AF03F05400751071CF479018A0161E03996CA
S1132B0032E0EA35F307E1F6662309F457C01E14F0
S1132B101F04100611060CF0E1CAE0927202F09252
S1132B207302009374021093750281E08093B501DF
S1132B30A8019701C601B5010E9444033FC09091CA
S1132B40DC01809121019817C9F190932101992307
S1132B50C9F400915001109151016091EE01C80136
S1132B600E942009482F5527442341F18FEF809379
S1132B7021016091500170915101F80183850E94F7
S1132B80420A1CC08FEF8093210118C0FA01818191
S1132B902281AA0FBB1FA154BE4F9927982F8827C3
S1132BA03327822B932B8D939C93809125018F5FE8
S1132BB08093250177CE550F41E09ACAA8960FB6A7
S1132BC0F894DEBF0FBECDBFDF91CF911F910F915F
S1132BD0FF90EF90DF90CF90BF90AF9008958091D9
S1132BE0CB028F3FB1F0282F3327F901ED55FE4F6B
S1132BF080818093CB028F3F11F48093DA028FEFB0
S1132C0080832F3F31F0822F0E942C1081E090E0CE
S1132C10089580E090E008951F93CF93DF93CDB79C
S1132C20DEB7E0970FB6F894DEBF0FBECDBF1FB777
S1132C30F8944FE050E06FEF70E083EA91E00E9477
S1132C40211A8FEF8093CB028093DA0281E08EBD4C
S1132C5088E080BF83E083BF8CB59DB54AE72CB57F
S1132C603DB52817390708F44150442311F0C90130
S1132C70F6CF92B782B78917E9F32CB53DB592B771
S1132C8082B78917E9F38CB59DB5821B930B4096E7
S1132C9075E0969587957A95E1F79093CD028093A8
S1132CA0CC0213BE83B78EBD8EB580BF12BE1DBCD1
S1132CB01CBC8FEF86BF86B780937C0080B79927B2
S1132CC087709070892BD1F7D29AD19AD09ADA9AD8
S1132CD0D99AD89A15BA8FEF84BBD498DC981DBCC6
S1132CE01CBC87B7846087BF8EB5887F84608EBD27
S1132CF00E94EF158823E1F78FEF8093BA01EBE58B
S1132D00F1E08FEF9FEF918380831282339621E06D
S1132D10E736F207C1F70E9479036093710280914C
S1132D200001909101010196AA27BB278093D80145
S1132D309093D901A093DA01B093DB0180B7886046
S1132D4080BF8BE083BF86EE81BF87B7826087BF79
S1132D500E94C10286E992E090935301809352014C
S1132D608E98B89A8C988FEF8093E101109261024B
S1132D70109262021092630210926402B89AD69A78
S1132D80D59A8FB7F894992720911E0130911F018D
S1132D908FBF3093E7012093E6010E94250529A700
S1132DA03AA74BA75CA76DA77EA78FA798ABDE01B8
S1132DB09196FE01B99688E001900D928150E1F759
S1132DC0DE015196FE01B19688E001900D9281508A
S1132DD0E1F7DE015996FE01719688E001900D92AB
S1132DE08150E1F7A7E6B2E0FE01799688E0019010
S1132DF00D928150E1F78091200199279093D4019D
S1132E008093D3018FE180935C028AE180936F0207
S1132E100E94250529A73AA74BA75CA76DA77EA703
S1132E208FA798ABDE019196FE01B99688E00190D8
S1132E300D928150E1F7DE011196FE01B19688E012
S1132E4001900D928150E1F7DE011996FE01319651
S1132E5088E001900D928150E1F7A7E6B2E0FE010F
S1132E60399688E001900D928150E1F7A7E6B2E02F
S1132E70FD0137969C9180818D939083319782E0F8
S1132E80EA36F807B9F781E08093B7011092D402CB
S1132E908093D501109266020E94EF158823E1F712
S1132EA0812F99278FBF78940E94D50C209100011F
S1132EB0309101012230310539F481E080932A01F7
S1132EC082E080932B0111C02330310521F482E08C
S1132ED080932A0114C02430310539F481E08093B1
S1132EE02A0183E080932B0111C02530310539F488
S1132EF082E080932A0183E080932B0114C0273061
S1132F00310521F481E080932A0114C02830310571
S1132F1051F481E080932A0182E080932B0183E0C5
S1132F2080932C010AC02930310521F483E0809379
S1132F302A0103C02130310511F00E94A1028FB78C
S1132F40F894482F55274BC087B799278370907002
S1132F50892B19F4E5E0F0E013C080B79927877056
S1132F609070892BD1F781B792B7891B8C3030F0E0
S1132F7082B7853F18F4E3E0F0E002C0E2E0F0E05D
S1132F8087B7887BC1F480917D008B7FA1F46E9913
S1132F9012C08AB190919A00892B887161F4809152
S1132FA0740082FD08C0379B03C081E090E005C037
S1132FB085E090E002C080E090E025B78E1708F429
S1132FC0E82FFF27E457FF4FE491237E2062E22B92
S1132FD0E5BF78948895F89485B78F7D85BF8091F7
S1132FE0CB028F3F09F4B0CF282F3327F901ED55D9
S1132FF0FE4F80818093CB028F3F11F48093DA02DD
S11330008FEF80832F3F09F49FCF4FBF822F0E9401
S11330102C1095CFACE2B0E0E0E1F8E10C94DD19BE
S1133020222E332E442E552E662E772E882E992E40
S1133030FE013196A8E01192AA95E9F729823A8215
S11330404B825C826D827E828F829886FE013996E5
S1133050B8E01192BA95E9F7A986BA86CB86DC86E0
S1133060ED86FE860F87188B89819A81AB81BC819E
S113307089A79AA7ABA7BCA77C018D018FEF9FEF0F
S1133080A0E0B0E0E822F9220A231B2389A59AA52F
S1133090ABA5BCA51D014424552489859A85AB851F
S11330A0BC858DA39EA3AFA3B8A75C016D018FEF70
S11330B09FEFA0E0B0E0A822B922CA22DB228DA1B2
S11330C09EA1AFA1B8A53D0188249924C801B701E8
S11330D0A60195010E94BE1969A37AA38BA39CA3A0
S11330E0C801B701A40193010E94BE197B018C01A0
S11330F0C201B101A60195010E94BE195B016C01D8
S1133100C201B101A40193010E94BE193B014C010B
S1133110EA0CFB1C0C1D1D1D89A19AA1ABA1BCA12D
S11331209D01442755272E0D3F1D401F511F2A1571
S11331303B054C055D0540F480E090E0A1E0B0E083
S1133140680E791E8A1E9B1ECA01AA27BB27860DFC
S1133150971DA81DB91D8D8F9E8FAF8FB8A3A90190
S11331603327222789A19AA1ABA1BCA1A070B0707A
S1133170280F391F4A1F5B1F298F3A8F4B8F5C8F93
S1133180A98CBA8CCB8CDC8CED8CFE8C0F8D18A1A9
S1133190FE01719698E011929A95E9F7ED8AFE8AFC
S11331A00F8B188F2D813E814F8158856DA17EA193
S11331B08FA198A50E94BE193B014C012D853E8527
S11331C04F85588969A57AA58BA59CA50E94BE192F
S11331D02D893E894F89588D260F371F481F591F47
S11331E0260D371D481D591D2D8B3E8B4F8B588F37
S11331F06D887E888F88988C2A2D3B2D4C2D5D2DD3
S1133200662D772D882D992DE2E1AC960C94F91951
S1133210A0E1B0E0EEE0F9E10C94DD19222E332EAA
S1133220442E552E662E772E882E992E002309F4CF
S113323066C088E0FE01319611928A95E9F72983E8
S11332403A834B835C836D837E838F829887E0E22D
S1133250E01B1E16CCF52D813E814F815885602FD1
S1133260772767FD7095DA01C901062E04C0B6956B
S1133270A795979587950A94D2F78D879E87AF87F0
S1133280B88B04C0220F331F441F551FEA95D2F791
S113329089819A81AB81BC8104C0B695A795979525
S11332A087956A95D2F7282B392B4A2B5B2B2987D4
S11332B03A874B875C8729843A844B845C846D8489
S11332C07E848F8498881BC01D861E861F86188A5C
S11332D02E2F332727FD3095309521953F4F8D8133
S11332E09E81AF81B88504C0B695A79597958795BB
S11332F02A95D2F789879A87AB87BC87DCCF222DA2
S1133300332D442D552D662D772D882D992DE2E1F1
S113331060960C94F919991B79E004C0991F9617CB
S113332008F0961B881F7A95C9F780950895AA1B03
S1133330BB1B51E107C0AA1FBB1FA617B70710F09C
S1133340A61BB70B881F991F5A95A9F780959095CE
S1133350BC01CD01089597FB092E07260AD077FDFD
S113336004D0E5DF06D000201AF4709561957F4FF4
S11333700895F6F7909581959F4F0895629FD00127
S1133380739FF001829FE00DF11D649FE00DF11D1C
S1133390929FF00D839FF00D749FF00D659FF00DCB
S11333A09927729FB00DE11DF91F639FB00DE11DB8
S11333B0F91FBD01CF01112408952F923F924F921E
S11333C05F926F927F928F929F92AF92BF92CF92B1
S11333D0DF92EF92FF920F931F93CF93DF93CDB7BA
S11333E0DEB7CA1BDB0B0FB6F894DEBF0FBECDBF32
S11333F009942A88398848885F846E847D848C8403
S11334009B84AA84B984C884DF80EE80FD800C810B
S11334101B81AA81B981CE0FD11D0FB6F894DEBFEE
S11334200FBECDBFED010895FB01DC0104C08D91F9
S11334300190801921F441505040C8F7881B990B22
S11334400895DC0101C06D9341505040E0F70895A8
S1053450FFCFA8
S1133452010088133D00AD000B017301DF01470237
S1133462B1022003910301020301FFFFFFFF0100E8
S107347222FFFFFF33
S9030000FC
